:1000000000308A0019280000213084008313000882
:10001000031918280130F800F701F70B0D28F80B29
:100020000C284A30F700F70B13281628800B0A28F3
:100030000034840183131F3083051930831699001F
:10004000A630980090308312980083161F149F14D6
:100050001F159F11FF308312A00083161F149F14D9
:100060001F159F1183121F108316091283129412F9
:10007000A0122008831687008312201620088316FA
:1000800087008312A0112008831687000130831295
:1000900094000030831694000108C73908388100A5
:1000A000831290010030F800920000308316920015
:1000B00006108312061483168610831286141930D4
:1000C000A1000420831606108312061083168610E2
:1000D000831286106430A100042083160610831258
:1000E000061483168610831286141930A10004208A
:1000F000831606108312061083168610831286104C
:10010000FA30A10004208316061183120615831607
:100110008611831286151930A1000420831606115A
:100120008312061183168611831286116430A10092
:100130000420831606118312061583168611831276
:1001400086151930A10004208316061183120611AA
:0E0150008316861183128611831658286300C9
:02400E00393F38
:00000001FF
;PIC16F877
;CRC=2797  CREATED="19-nov-14 19:21"
