:1000000000308A00762C00000A108A100A1182073C
:1000100028340C34013406340A108A100A1182077D
:100020000C34543465346D3470343A3425343334FC
:100030002E343134663400343630840083130008A3
:10004000031930280130F800F701F70B2528F80BC9
:1000500024284A30F700F70B2B282E28800B222863
:1000600000343D080F39F700F030080577048800A8
:10007000000085143B28851000348511FF3083165D
:100080008800F130850083120515000085140000FA
:1000900008080F39BD00851000008514000008080D
:1000A0000F39BC008510F0308316880083123D0E96
:1000B000F700F030F70577083C04F8007808BC003A
:1000C000BC1B3E283A1C85113A1885150000051105
:1000D000000085103B0EBC000F30BC053C08BD0085
:1000E00031203B080F39BC00BD0031200034F03016
:1000F00083168800F1308500831285110511851063
:100100000F30B6001C200130A7002708033C031C59
:1001100091280330BD0031200530B6001C20A70A0D
:1001200085280230BD003120A7012708033C031CAD
:10013000A22827080420A800BA012808BB003D20F7
:10014000A70A95288A110A12BE2C8E30F7002808BB
:10015000F8002708F900FA01F808031DB928790802
:10016000F800F9010830F702F808031DB928F70173
:10017000C1280310F81BC028F90DF80DF703B928A2
:10018000F8130034350803193229BD003908031962
:100190003229BD070318D3287F30BD02031C322942
:1001A00003193229D7288130BD07031832293D08A9
:1001B000F700F801F901FA013608C100C117370844
:1001C000C0003808BF001830BD00BE013F1C002928
:1001D0003C08FA07031CF228F90A031DF228F80A62
:1001E0000319BE173B08F907031CF928F80A03197D
:1001F000BE173A08B700B7173708F8070318BE1735
:10020000BE0DF80CF90CFA0CC10CC00CBF0C03109D
:10021000BD0BE5280130F70703183229F81B172911
:10022000C10DFA0DF90DF80DF70303193229C11F9D
:100230002829FA0A031D2829F90A031D2829F80A82
:10024000031D2829F80CF90CFA0CF70A03193229B6
:100250003608BE003A08BE06BE1F3029F8173629F8
:10026000F8133629F701F801F901FA0100342F08D3
:100270000319FC29BB0033080319FC29BB02031C2A
:1002800046297F30BB070318FC294C298130BB026B
:10029000031CFC290319FC293B08F700F801F901AC
:1002A000FA01BA013008B900B9173108B8003208AC
:1002B000B7001930BB003608B70203186F290130A8
:1002C000B80203186F29B90203186F29BA0203187C
:1002D0006F29BA0AB90AB80A3608B707A12935083A
:1002E000B80203188A290130B90203188A29BA0210
:1002F00003188A29BA0AB90A3508B8073608B707B1
:10030000031CA129B80A031DA129B90A031DA129AB
:10031000BA0AA12934088038B9020318A02901308B
:10032000BA020318A029BA0A34088038B907350878
:10033000B807031C7E29B90A031D7E29BA0A7E2943
:100340007A14BB0BA429AF290310B70DB80DB90D52
:10035000BA0D0310FA0DF90DF80DBC0D5B293C1C0C
:10036000B7290310F80CF90CFA0CBC0CBA29F703E6
:100370000319FC29BC1BE3290310B70DB80DB90DF7
:10038000BA0D3608B7020318CF290130B802031896
:10039000CF29B9020318CF29BA02031CF229350864
:1003A000B8020318DA290130B9020318DA29BA02AF
:1003B000031CF22934088038B9020318E3290130FC
:1003C000BA02031CF229FA0A031DF229F90A031DD5
:1003D000F229F80A031DF229F70A0319FC29F80C7F
:1003E000F90CFA0C3008BB003408BB06BB1FFA2915
:1003F000F817002AF813002AF701F801F901FA01A9
:100400008A110A12FC2C2808AF002C08AF06AF1F77
:100410000E2A03110310A81B0314412A2808AF0059
:100420002B08B0002708B00203191C2AAF1F412A6D
:100430000308013A8300412A2C08B0002808B002C2
:100440000319282AAF1F412A0308013A8300412AD1
:100450002D08B0002908B0020319342AAF1F412A21
:100460000308013A8300412A2E08B0002A08B0028E
:100470000319402AAF1F412A0308013A8300412A89
:1004800003108A110A12302D35080C3A03194F2A2D
:10049000063A0319572A023A03196D2A722ABA0139
:1004A0000130BB003D200230B6001C20782A01300C
:1004B000B6000230B700370B5E2A612A4030B80020
:1004C000622AB80101303602B80738088038B9000E
:1004D000BA013908BB003D20782ABA011030BB00B0
:1004E0003D20782A0130BA003508BB003D20782A2B
:1004F00000343508B63CB500FA013608B900B61725
:100500000310B60CB70CB80CFA0CF90CF80CF70C7D
:10051000B50B802AB91F972AF709F809F909FA09D2
:10052000F70A0319F80A0319F90A0319FA0A003439
:10053000F701F801F901FA01BD01BE01BF01C001D7
:100540003C083B043A0439040319D62A2030C10080
:100550000310B50DB60DB70DB80DBD0DBE0DBF0D19
:10056000C00D3C084002031DBF2A3B083F02031D8B
:10057000BF2A3A083E02031DBF2A39083D02031C68
:10058000D02A3908BD023A08031C3A0FBE023B08C4
:10059000031C3B0FBF023C08031C3C0FC0020314AA
:1005A000F70DF80DF90DFA0DC10BA82A3D308400A6
:1005B000831300340408AD002C08AF000319F92A96
:1005C0002B08B8002A08B7002908B6002808B5008B
:1005D000BC01BB012030BA008230B900C2207A08C9
:1005E000AB007908AA007808A9007708A800AF0B2B
:1005F000E02A2B08B8002A08B7002908B600280806
:10060000B50079227A08AB007908AA007808A90019
:100610007708A800AB1F192BAD03AD16A809A909CF
:10062000AA09AB09A80A0319A90A0319AA0A0319F6
:10063000AB0A3B30B4009A30B300CA30B200B1010B
:100640000A30AF002C080319AD0A2B08B8002A089D
:10065000B7002908B6002808B5003408BC003308E4
:10066000BB003208BA003108B90098220008A8007F
:10067000840A0008A900840A0008AA00840A000865
:10068000AB00FD308407F708031D592B2C0A2F02FD
:100690000319592B2D0803195B2B0F392F0203194E
:1006A000532B03188B2BAD1B8B2B2D1B5B2B20305F
:1006B000872B2030AD05AD1E692BAD122C08031D14
:1006C000AD037708AD002D30B50044222D08F700AA
:1006D000AD012C082F02031D772B7708AD002E30BB
:1006E000B50044222D08F7002030AD050030303031
:1006F000AD1E872BAD122C08031DAD037708AD008E
:100700002D30B50044222D08F700AD013030F70739
:100710007708B50044223408B8003308B70032081F
:10072000B6003108B500BC01BB01BA010A30B900FE
:1007300098227A08B4007908B3007808B2007708E4
:10074000B100AF0B252B8A110A12532D0408AD00FE
:100750002C08AF000319C52B2B08B8002A08B700D6
:100760002908B6002808B500BC01BB012030BA003A
:100770008230B900C2207A08AB007908AA00780854
:10078000A9007708A800AF0BAC2B2B08B8002A08EB
:10079000B7002908B6002808B50079227A08AB000E
:1007A0007908AA007808A9007708A800AB1FE52BF4
:1007B000AD03AD16A809A909AA09AB09A80A03192E
:1007C000A90A0319AA0A0319AB0A3B30B4009A30EC
:1007D000B300CA30B200B1010A30AF002C080319CF
:1007E000AD0A2B08B8002A08B7002908B600280867
:1007F000B5003408BC003308BB003208BA00310829
:10080000B90098220008A800840A0008A900840AF8
:100810000008AA00840A0008AB00FD308407F7082E
:10082000031D252C2C0A2F020319252C2D08031932
:10083000272C0F392F0203191F2C03185B2CAD1B1B
:100840005B2C2D1B272C2030562C2030AD05AD1EE7
:10085000362CAD122C08031DAD037708AD002D30EA
:100860000C1E302C99002D08F700AD012C082F022A
:10087000031D452C7708AD002E300C1E3D2C990031
:100880002D08F7002030AD0500303030AD1E562C5D
:10089000AD122C08031DAD037708AD002D300C1EE2
:1008A0004F2C99002D08F700AD013030F70777087D
:1008B0000C1E582C99003408B8003308B7003208D1
:1008C000B6003108B500BC01BB01BA010A30B9005D
:1008D00098227A08B4007908B3007808B200770843
:1008E000B100AF0BF12B8A110A126D2D8401831315
:1008F0001F308305193083169900A6309800903078
:100900008312980083161F149F141F159F1119300E
:100910008312A500FF30A60083161F109F141F1519
:100920009F1583121F179F1783169F1383121F147F
:100930008316091283129412A612260883168700C2
:10094000831226162608831687008312A61126080E
:1009500083168700013083129400003083169400C0
:100960000108C73908388100831290010030F8006F
:100970009200003083169200831277280030F8002E
:100980001F08C73978049F000A30B6001C201F15C5
:100990001F19C82C1E08A000A8012008A700A52028
:1009A0007708A7007808A8007908A9007A08AA00A3
:1009B000B8007908B7007808B6007708B500BC0120
:1009C000BB012030BA008130B900C2207708AB00EB
:1009D0007808AC007908AD007A08AE00B20079085A
:1009E000B1007808B0007708AF00B601B5017F30DC
:1009F000B4008630B30037297A08A4007908A30030
:100A00007808A2007708A100B801B7012030B6002D
:100A10008230B5002408BC002308BB002208BA00BD
:100A20002108B900C2207A08A4007908A300780838
:100A3000A2007708A100A8012508A700A5207A0830
:100A4000AA007908A9007808A8007708A700240858
:100A5000AE002308AD002208AC002108AB00032A39
:100A6000031C372D83160610831206143B2D8316A4
:100A7000061083120610A70127080C20A70AF7000A
:100A8000B500442206302702031D3C2D02308400AD
:100A90002408AB002308AA002208A9002108A80006
:100AA0000130AC00DA2AA70127080C20A70AF700BA
:100AB00077080C1E592D990006302702031D542D6E
:100AC000023084002408AB002308AA002208A900F1
:100AD0002108A8000130AC00A62B6430B6001C2011
:040AE000C72C6300BC
:02400E00393F38
:00000001FF
;PIC16F877
;CRC=FA8A  CREATED="19-nov-14 18:45"
